:020000021000EC
:10A0000053656364CC07010049BD0100457B939B08
:10A01000024B03EB0010C068704700BF3F1F0020D9
:10A02000024B03EB0010C160704700BF3F1F0020D0
:10A0300070B5CC0714D500260B4C04EB061425880C
:10A0400055B9432626704E2660806670A160E26096
:10A05000A380E380284670BD0136B6F5807FEBD142
:10A060004FF0FF3070BD00BF3F1F0020CB0710B581
:10A0700013D500220A4B03EB02131C884CB15C88F9
:10A08000844206D19C688C4203D10020187058701D
:10A0900010BD0132B2F5807FECD14FF0FF3010BD22
:10A0A0003F1F00207FB50A4604318DF80410C321FC
:10A0B0008DF80510402103468DF8061000218DF81B
:10A0C000071002A81946054B984701A89DF80410EF
:10A0D00000F0F4F907B05DF804FB00BF2780010031
:10A0E0000B1F0C2B00D8DDE7704707B547238DF811
:10A0F0000030030A8DF801308DF8020000238DF83E
:10A1000004108DF805206846120A07218DF80330E7
:10A110008DF80620FFF7C6FF03B05DF804FB10B50D
:10A12000044600F05BFE01F02FF800F009FE084B3A
:10A130001B7813B900F070F901E000F0C5FF01F0E1
:10A1400059FD08B11CB1013C00F078F8E9E710BDF9
:10A15000901D00202DE9F74F002681468846924643
:10A160009B46344600F03AFE01F00EF800F0E8FDA0
:10A170001B4B1D7865BB00F031F9074698B100F024
:10A180003FF9BB798DF804307B798DF80530BDF847
:10A1900004304B4507D108F1040158463944524672
:10A1A000104B984714E001F025FD70B114B1013C4B
:10A1B000E4B20AE0751C022EEDB20BD822464846E6
:10A1C0000121FFF792FF2E463C2400F037F8C9E743
:10A1D000002001E04FF0FF3003B0BDE8F08F00BF7A
:10A1E000901D0020278001006DDF704772DF7047EF
:10A1F00073DF704777DF704778DF70477CDF704729
:10A20000BFF34F8F0549064BCA6802F4E06213435F
:10A21000CB60BFF34F8F00BFFDE700BF00ED00E054
:10A220000400FA05A0DF7047A2DF7047A6DF704781
:10A2300060DF704769DF704761DF70473EDF70475E
:10A2400029DF704728DF704710DF704708B5FFF738
:10A25000D7FF000013B52C23ADF806300B4C0C4B88
:10A2600022782C2000FB02300DF10601FFF7E4FFFD
:10A27000052808D008B1FFF7C3FF2378013303F0A6
:10A2800003032370EAE702B010BD00BF721D002077
:10A290008C1E002008B54FF0A0431049D3F81035AC
:10A2A0000F4A13F080430ED10B7013780133DBB2E9
:10A2B000C72B137004D11920BDE80840FFF7C2BFB7
:10A2C000CC2B09D106E00B7801330B7013781BB14E
:10A2D00000231370FFF794FF08BD00BF171D002077
:10A2E000161D002038B5094C23780A46591C2170E8
:10A2F00007490546142000FB0310064B29469847E2
:10A3000023783F2B84BF0023237038BD1E440020D8
:10A310004C2F00202780010013B5274B1A688AB103
:10A3200000221A601B680193019B244B01221A60D2
:10A33000234B02221A70234BD3F8D0240192019AA6
:10A34000C3F8D024204B1A683AB100221A601B6867
:10A350000193019B1A4B02221A701C4B1A683AB1E6
:10A3600000221A601B680193019B154B03221A708F
:10A37000174B1A68F2B100221A601B680193019B07
:10A380000F4B1A78032A1C460FD112480179F0238B
:10A390004370043143798370C9B2C379C3700170CB
:10A3A000FFF7A0FF0122054B01E00B4B01221A60D1
:10A3B0000123237002B010BD243100403030004032
:10A3C0002E440020003000406831004064310040DD
:10A3D00004310040F043002034300040054B064A71
:10A3E0001B7812789A421DBF044A142000FB0320F8
:10A3F000002070472C4400201E4400204C2F0020D9
:10A40000044A13780133DBB23F2B88BF002313705B
:10A41000704700BF2C44002073B5FFF7DFFF0446F0
:10A42000002843D04378D22B0CD101784B1E132B3C
:10A4300003D81F4B9847002838D102B0BDE87040C0
:10A44000FFF7DEBFF02B31D11A4B1E221A804FF0DE
:10A45000A0434FF48052C3F80C25FFF7D1FF637976
:10A460000E2B01D1237A03E003F0F002D02A1DD194
:10A470008DF80530A3798DF8043000250E4B03EBE1
:10A48000051344F24322198891420BD15988BDF833
:10A490000420914206D153F8086F1EB1201D59685F
:10A4A0002A46B0470135B5F5807FE7D102B070BDCF
:10A4B000557A01007A1D00203F1F002038B5094C55
:10A4C00023780A46591C217007490546142000FBD1
:10A4D0000310064B294698472378C72B84BF0023D7
:10A4E000237038BD4A2F00204C3400202780010003
:10A4F00013B548238DF800300E4900280CBF902377
:10A50000912300248DF8013028238DF8023001EBCF
:10A510004001022201A8084B8DF803409847684685
:10A5200008218DF806408DF80740FFF7BBFD02B00B
:10A5300010BD00BF08BF010027800100054B064A7F
:10A540001B7812789A421DBF044A142000FB032096
:10A55000002070474B2F00204A2F00204C34002051
:10A56000044A13780133DBB2C72B88BF0023137072
:10A57000704700BF4B2F00204FF0A0434FF4C06244
:10A58000C3F82027C3F8182770474FF0A04340F2C4
:10A590000162C3F81827C3F820274FF4A072C3F84C
:10A5A00008257047054B064AC3F83425C3F84425EF
:10A5B0001C22C3F83825C3F84825704700300040F6
:10A5C000F443002070B5234A234C4FF0A0450023EC
:10A5D0001370C4F800354FF4C063C5F82037A026C7
:10A5E000C5F8183740F20333C5F814370320C5F80F
:10A5F0001C37C5F80865194B984740F20163C5F848
:10A600001437C5F81C370523C5F80865C4F80835A4
:10A610000723C4F80C3501252023C4F88835C4F875
:10A620009455FFF7BFFF0E4BC4F80833A3F5C013D2
:10A63000C4F804330B4BE02283F803230822C3F849
:10A6400080211A600923C4F80035074B1D605D6046
:10A6500070BD00BF3F2F002000300040FB80010094
:10A660000202180600E100E03030004040002DE911
:10A67000F04740F0010400254FF0A04304F4807738
:10A6800040F20162BFB2C3F820274FF4807217B1C5
:10A69000C3F8082501E0C3F80C25082DDFF89080E9
:10A6A00001D10620C0474FF0A0460C2040F2016ABD
:10A6B0004FF04009C047C6F818A70620C6F808950D
:10A6C000C047D6F810355A060BD54FF0A0430220EC
:10A6D000D3F81065164B06F480769847B7420ED132
:10A6E00010E0C6F818A7124BC6F808950620984740
:10A6F000D6F810355B06E8D40220BDE8F087082DB7
:10A70000FAD101E0082D10D04FF0A04340F20162D1
:10A710000135C3F8182764004022092DA4B2C3F8FC
:10A720000C25A9D10020BDE8F0870320BDE8F08703
:10A73000FB8001002DE9F04383788BB00446152B94
:10A7400000F23882DFE813F0160036000601360208
:10A750003602360236023602F10036023602360280
:10A76000360236023602280144016D01A601D401E9
:10A7700000021F02BB4B1B78002B40F01B828DF8A0
:10A780001630B1238DF817300821D222B64B8DF840
:10A7900014108DF815201B788DF81830B34B1B78EA
:10A7A0008DF8193020238DF81A30B14B1B788DF8B5
:10A7B0001B30FCE1AB4B1978002940F0FB81684667
:10A7C0001022AC4B984700220123CDE90023FFF76C
:10A7D000DCFE03264FF0A0440425C4F80C550320EA
:10A7E000A54B9847C4F8085501243F2C34DCDDE91B
:10A7F0000001224601F05CFB002100F0010050EA5C
:10A80000010375D14FF0A04540F201674FF04008B9
:10A810004FF48073C5F818770620C5F80885C5F889
:10A820002077C5F80C35944B98476000C5F8187729
:10A8300000F0FE00C5F80C85FFF718FF002840D196
:10A8400022460120002101F041FBDDE900231043F5
:10A850001943CDE9000134E0A4F14008DDE902012B
:10A86000424601F025FB002100F0010050EA0103FF
:10A870003ED14FF0A04540F201674FF040094FF440
:10A880008073C5F818770620C5F80895C5F82077B5
:10A89000C5F80C35784B98476000C5F8187700F07C
:10A8A000FE00C5F80C95FFF7E1FE50B142460120CD
:10A8B000002101F00BFBDDE9022310431943CDE930
:10A8C00002014FF0A04540F201674FF04008C5F883
:10A8D0001877694BC5F80885052098474FF48073B1
:10A8E000C5F82077C5F80835C5F81877C5F8088584
:10A8F00001347F2C7FF479AF013E7FF46BAFFFF71B
:10A900003BFED22314248DF8153001238DF8163028
:10A9100006A869468DF814408DF817601022574B31
:10A9200098470DEB0400214642E14E4B1B78002B6B
:10A9300040F040810378042B40F03C81504B1B6871
:10A94000DB0740F13781C378022B00F23381484A9C
:10A9500013702FE1434B1A78002A40F02B8190F9B5
:10A960000320002AC0F226810278042A40F02281C6
:10A9700001221A70FFF709FE4FF0A0434FF4C062A6
:10A98000C3F82027C3F818270322C3F834274FF44D
:10A990000052C3F808250DE10378142B40F00A811A
:10A9A0001022364B05A8211D9847059B354A934236
:10A9B00040F00081069A9A4240F0FC80079B934247
:10A9C00040F0F880089A9A4240F0F480FFF718FCB3
:10A9D000244B1B78002B40F0ED800378082B40F0CF
:10A9E000E980294D254B2846211D042298472868D7
:10A9F000A0F5F033B3F5C42F80F0DC80E378FF2BB3
:10AA000002D1000BFFF71EFCD2238DF81530102366
:10AA100004218DF81630E3788DF814108DF8173076
:10AA2000C5E0104B1B78002B40F0C480164E3368F5
:10AA3000A3F5F033B3F5C42F80F0BC800278C5785D
:10AA40000E4B1248211D043A9847227830680F496E
:10AA5000043A00EB05109210FFF7F2FB28460C4B6E
:10AA60009847A7E0141D002006A0010007A00100E0
:10AA7000901D002091800100FB80010027800100D3
:10AA8000F8830100EFBEADDE501D0020401D002008
:10AA90001B8201004A4B1B78002B40F08B8003780F
:10AAA000082B40F08780C178464B002918BF0D461F
:10AAB0004FF0040205A804F1040108BF4FF48075AB
:10AAC0009847414BA9001868404B9847059BD222F4
:10AAD000D8420CBF0023FF2304218DF8012012224D
:10AAE0008DF800108DF802208DF8033068465FE085
:10AAF000334B1D78002D5DD10378082B5AD1C678D1
:10AB0000002E08BF4FF480762C46A8B2304B9847F1
:10AB100040B9631C0AAA9BB21444102B04F8105CC1
:10AB20001C4603D00135ABB2B342EED3E4B2D2231C
:10AB3000211DC9B28DF8153013238DF814108DF82E
:10AB400016308DF8174032E01D4B1D7895BB037809
:10AB5000082B2FD11B4E6846211D0422B047009BB5
:10AB6000E17806A803EB01111022B0471421D2238B
:10AB70008DF814108DF815308DF816108DF81750CB
:10AB80000DEB010014E00E4B1D789DB90378142BDA
:10AB900010D1104B04309847D22304218DF8153082
:10ABA00015238DF814108DF816308DF8175005A860
:10ABB000FFF798FBFFF7D4FC00200BB0BDE8F08353
:10ABC000141D002027800100501D0020E780010097
:10ABD000FF8101008181010038B54FF0A0440425B8
:10ABE000C4F80C5503200C4B9847C4F8085564244E
:10ABF000094B032098474FF0A043D3F81025520685
:10AC000007D5D3F81035DB0503D5013CF0D120463C
:10AC100038BD012038BD00BFFB8001002DE9F8439D
:10AC20000D78403DEDB2102D06460F4656D82D4BFF
:10AC30001B5C002B52D112B106202B4B98474FF0D2
:10AC4000A04440F201684FF040094FF48073C4F80B
:10AC500018870620C4F80895C4F82087C4F80C3576
:10AC6000214B98477000C4F8188700F0FE00C4F824
:10AC70000C95FFF7FBFC044650B93E46F31BAB4274
:10AC800009DA16F8010BFFF7F1FC0028F6D00446AC
:10AC9000032C14D103244FF0A0454FF4807340F2ED
:10ACA0000167C5F820770620C5F80C350E4EB04771
:10ACB0004023C5F818770620C5F80835B0474FF08F
:10ACC000A04340F20162C3F81827C3F820274FF4CD
:10ACD000A072C3F808252046BDE8F8830420BDE82B
:10ACE000F88300BF091E0020FB80010010B5037827
:10ACF000072B04460A4617D98079211DFFF78EFFDE
:10AD000000280EDD022812DD03280AD1A3790A4AA1
:10AD1000FF21D154094A13780133DBB2012B1370A0
:10AD200007D9064B00221A70FFF71AFC01E0002039
:10AD300010BD012010BD00BF091E0020DB1D00203A
:10AD4000F8B500252F46FFF7F9FB044614B9002D8E
:10AD50003FD024E02378043B102BF7D86378A52B51
:10AD60000CD12046FFF7E6FC1A4B1E221A804FF04A
:10AD7000A0434FF48052C3F80C25E4E7C32BE2D183
:10AD8000154E9DB9FFF728FF68B133780133DBB268
:10AD9000102B01D83370F8BD3570FFF713FCBDE8F8
:10ADA000F840FFF7E9BBFFF7F0FB01250023337004
:10ADB000084B1E221A804FF0A0434FF480523946B0
:10ADC000C3F80C252046FFF791FF07460028BAD1AB
:10ADD000E5E7F8BD7A1D00203F2F00202D4B37B549
:10ADE0009847431C54D02C4B8DF807001A782B4CF5
:10ADF00002B9227032221A702378052B46D8DFE878
:10AE000003F00312452033269DF807301A1F102A3D
:10AE100003D8234A1370012339E00DF10700012103
:10AE2000204B984734E09DF80730A52B01D0C32B69
:10AE300003D11D4A1370032329E0043B102B27D9AB
:10AE400024E01A4B9DF807201A7005231FE0184BC9
:10AE50009DF8072012481A7001780D1FEDB283F893
:10AE600026507DB1042312E0124A0D481178037870
:10AE70004D1E5B1A1570DBB29DF80710195415783A
:10AE800035B90178FFF71AFB257001E00023237024
:10AE900003B030BD217A0100DA1D0020D81D00204A
:10AEA000B01D0020557A0100B11D0020B21D002008
:10AEB000B31D0020D91D00200849094A0B781278DB
:10AEC0009A421FBF07482C2202FB030001331ABF1E
:10AED00003F003030B700020704700BF731D0020B8
:10AEE000721D00208C1E00202DE9F04391B010AEA1
:10AEF0004FF6E07326F8343DDFF85081504D0124C1
:10AF000001AF3146424620468DF80E40FFF78AF9E0
:10AF1000384600210322A8479DF8043064F3030358
:10AF200064F307138DF804309DF8053064F30303D0
:10AF300064F307138DF805309DF8063064F342037F
:10AF40008DF8063009A800211C22A8479DF824305E
:10AF50000E9743F0100302AF8DF824304FF6E473E0
:10AF6000ADF80C3038468DF80E4000210322A8477A
:10AF70009DF8083064F3030364F307138DF8083079
:10AF80009DF8093064F3030364F307138DF8093067
:10AF90009DF80A3064F342036FF300038DF80A3022
:10AFA00004A800211422A8474FF0140909A904AAF3
:10AFB000244BB8F8000004960597ADF81C90FFF7F5
:10AFC00033F909A800211C22A8479DF824308DF8E8
:10AFD0000E4043F00A038DF824304FF6E973ADF8C4
:10AFE0000C30384600210322A8479DF8083064F34E
:10AFF000030364F307138DF808309DF8093064F3F8
:10B00000030364F307138DF809309DF80A3064F3E5
:10B0100042036FF300038DF80A3004A84A4600216A
:10B02000A847B8F80000084B049609A904AA059798
:10B03000ADF81C90FFF7F8F811B0BDE8F08300BF41
:10B0400091800100422F002016440020124400206D
:10B0500070B5184B1B8886B0064613B94FF0FF3009
:10B0600026E0154D2A884FF6FF739A42F6D00378F2
:10B07000ADF80630013B132BF0D8102202A80021B6
:10B080000E4B98470E4B28881B88ADF808300123DB
:10B090008DF80A3000240DF1060302A90493ADF8DF
:10B0A0000C400596FFF7C2F8064B06221A702046A0
:10B0B00006B070BD402F0020304400209180010078
:10B0C000422F00203E1F002008B5FFF787F9D0B1BE
:10B0D0000D4B1B781BB1BDE80840FFF791B90B4B36
:10B0E0001B78022B05D10A4B1B7863B9FFF7B0FF21
:10B0F00007E0012BEFD101784B1E132BEBD8054B4A
:10B1000098470028E7D008BD141D0020901D00209E
:10B110003E1F0020557A010010B5C38904463BBB91
:10B12000018A142924D8134BC2881B889A4212D151
:10B13000114B1A884FF6FF739A420CD0837C142B64
:10B1400016D8C37CA52B01D0C32B11D104F112005A
:10B15000C9B2FFF7B3F9094BE2889B889A4207D13D
:10B1600004F112010648074B0222BDE810401847BF
:10B1700010BD00BF1644002030440020422F0020A4
:10B18000402F00202780010008B5FFF795FEF0B1A1
:10B190000388112B0AD0502B15D0102B17D10C4B34
:10B1A0008288002119800B4B1A8008BD084B0A4881
:10B1B00000221A80074B4FF6FF721A800121BDE86A
:10B1C0000840FFF715B8BDE80840FFF7A5BF08BD68
:10B1D000402F002030440020801D002007B546236A
:10B1E0008DF8003008238DF8023000238DF80330ED
:10B1F0001523B1FBF3F202FB131101318DF80100AD
:10B200008DF804100123684606218DF80530FEF7FD
:10B2100049FF03B05DF804FB07B547238DF8003004
:10B2200008238DF801008DF802308DF804100023FA
:10B230003C22684607218DF803308DF805208DF8F3
:10B240000630FEF72FFF03B05DF804FB07B544237B
:10B250008DF8003007238DF801008DF80230684624
:10B26000002304218DF80330FEF71CFF03B05DF8C6
:10B2700004FB00001FB547238DF8083000238DF82C
:10B280000B301323ADF806200724B1FBF3F202FBC9
:10B2900013118DF809008DF80C100DF10D000DF152
:10B2A00006010222044B8DF80A40984702A8214665
:10B2B000FEF7F8FE04B010BD278001001FB548233B
:10B2C0008DF8083007238DF80A300523B1FBF3F31E
:10B2D00003EB83030024CB1AADF806208DF8090098
:10B2E0008DF80C300DF10D000DF106010222064B18
:10B2F0008DF80B40984702A808218DF80F40FEF703
:10B30000D1FE04B010BD00BF2780010030B587B06A
:10B31000492300248DF80C3007230D46ADF8062094
:10B320008DF80D008DF80E300DF111000DF10601B4
:10B3300002228DF80F408DF81040094B98471A21D2
:10B34000B5FBF1F301FB135141318DF8141003A843
:10B3500009218DF81340FEF7A5FE07B030BD00BFF0
:10B360002780010030B587B0492300248DF80C30C8
:10B3700007230D46ADF806208DF80D008DF80E3030
:10B380000DF111000DF1060102228DF80F408DF82C
:10B390001040094B98471A21B5FBF1F301FB1351FB
:10B3A00061318DF8141003A809218DF81340FEF7C0
:10B3B00079FE07B030BD00BF2780010010B5194CE1
:10B3C00023880520013B00212380FFF725FF2388E8
:10B3D000154A03F00303022B13D0032B19D0012BC2
:10B3E00007D0118801204FF4FA62BDE81040FFF742
:10B3F00041BF118804204FF4FA62BDE81040FFF706
:10B4000085BF118804204FF4FA62BDE81040FFF7B1
:10B41000A9BF118802204FF4FA62BDE81040FFF77F
:10B420004DBF00BFEE4300203C1F002010B5194C5B
:10B4300023880520013301212380FFF7EDFE2388B7
:10B44000154A03F00303022B13D0032B19D0012B51
:10B4500007D0118801204FF4FA62BDE81040FFF7D1
:10B4600009BF118804204FF4FA62BDE81040FFF7CD
:10B470004DBF118804204FF4FA62BDE81040FFF779
:10B4800071BF118802204FF4FA62BDE81040FFF747
:10B4900015BF00BFEE4300203C1F00201FB549230D
:10B4A0008DF804300B238DF806300B4B8DF805001A
:10B4B000002401F0070102A803EB81010422074BDD
:10B4C0008DF80740984701A809218DF80C40FEF738
:10B4D000E9FD04B010BD00BFE8BE010027800100F7
:10B4E00007B544238DF800300B238DF801008DF84B
:10B4F00002306846002304218DF80330FEF7D2FDA8
:10B5000003B05DF804FB00001FB548238DF8083038
:10B510000B238DF80A3014220023ADF806108DF8A5
:10B5200009008DF80B308DF80C208DF80D300DF1E1
:10B530000E000DF106010222044B984702A80821D3
:10B54000FEF7B0FD05B05DF804FB00BF27800100E9
:10B5500007B545238DF800300B238DF801008DF8D9
:10B5600002308DF804100023684605218DF8033061
:10B57000FEF798FD03B05DF804FB000013B500234F
:10B580000193014668B9224A13883BB90121118011
:10B590004DF206001E22FEF7A8FD36E0013B1380A7
:10B5A00033E001A8043102221A4B98471A4B019C40
:10B5B00018881A49A0421A4601D90B881BB90223E0
:10B5C00014800B8002E0013B0B80019001996329FC
:10B5D0000BD915235943A1F6340140F29B33902037
:10B5E000B1FBF3F189B2FFF7F9FD01991323594338
:10B5F0009120C1F38F214FF4FA62FFF73BFE0199CE
:10B600009620C1F38701FFF7A3FF02B010BD00BF72
:10B61000EC43002027800100104400203244002029
:10B620001FB58DF805000B208DF8060000208DF861
:10B6300007008DF808108DF80B008DF80C004924D8
:10B6400001A809218DF804408DF809208DF80A30F1
:10B65000FEF728FD04B010BD07B545238DF8003076
:10B6600090238DF8013024238DF8023000238DF8CB
:10B6700003300521B0FBF1F303EB8303C01A80B262
:10B68000044B1B5C8DF804306846FEF70BFD03B0DD
:10B690005DF804FB001E002010B5194C218801390B
:10B6A00089B200202180FFF799FD164B21881B8865
:10B6B00003F00303022B0FD0032B13D0012B05D073
:10B6C00001204FF4FA62FFF7D5FD10E004204FF49B
:10B6D000FA62FFF71BFE0AE004204FF4FA62FFF75C
:10B6E00041FE04E002204FF4FA62FFF7E7FD00207C
:10B6F0002188FFF7D3FE2088BDE81040FFF7ACBFDC
:10B700003C1F0020EE43002010B5194C2188013168
:10B7100089B200202180FFF761FD164B21881B882C
:10B7200003F00303022B0FD0032B13D0012B05D002
:10B7300001204FF4FA62FFF79DFD10E004204FF462
:10B74000FA62FFF7E3FD0AE004204FF4FA62FFF724
:10B7500009FE04E002204FF4FA62FFF7AFFD00207B
:10B760002188FFF79BFE2088BDE81040FFF774BFDB
:10B770003C1F0020EE43002008B515210020FFF7F4
:10B780002DFD0620FFF762FD0720FFF7A9FE002030
:10B79000BDE80840FFF760BF08B5012012214FF453
:10B7A000FA62FFF767FD03204FF4FA61FFF7ACFE82
:10B7B0000420BDE80840FFF74FBF072801D8FEF777
:10B7C00097BE704770B52A4A2A4D044698B9137837
:10B7D00043B9062313704DF2270001213222FEF7F0
:10B7E00084FC01E0013B13702B78002B3FD0214AF1
:10B7F000013B137070BD28780623137078BB227943
:10B80000032A06D0042A0CD0022A10D11A4B187031
:10B8100004E02B70184B07221A700420FEF768FE14
:10B820001DE0154A2B70022111701846F6E7607969
:10B83000431E052B13D8DFE803F0090E03030505AB
:10B84000072200E002220C4B1A7006E00A4B072286
:10B850001A70012001E0084B1878FFF7AEFFA179BC
:10B86000E279237A9020BDE87040FFF7D9BE70BD21
:10B870002D44002014440020081E0020F7B502A823
:10B8800044233D4F00F8013D01213C4B3C4E3D4DD2
:10B890003D4C98470022394613464FF48170FEF71D
:10B8A000C7FB00223146134640F20240FEF7C0FBC0
:10B8B00000222946134640F20220FEF7B9FB00227F
:10B8C0002146134640F20250FEF7B2FB00223946F1
:10B8D00013464FF48D70FEF7ABFB00223146134642
:10B8E00040F21A40FEF7A4FB00222946134640F21C
:10B8F0001A20FEF79DFB00222146134640F21A5003
:10B90000FEF796FB0022394613464FF48970FEF786
:10B910008FFB00223146134640F21240FEF788FBAF
:10B9200000222946134640F21220FEF781FB002236
:10B930002146134640F21250FEF77AFB00221346CE
:10B94000124940F20530FEF773FB002213461049FE
:10B9500040F20510FEF76CFB0E4900223C234DF22D
:10B960000600FEF765FB0C4900220A234DF2270072
:10B97000FEF75EFB03B0F0BD99B60100557A0100F9
:10B9800009B70100BDB301002DB4010079B7010072
:10B9900099B701007DB50100C5B70100F0B50346B8
:10B9A00000244618B34203F1030536D215F8033CD0
:10B9B0009B0803F5BC3393F8C030135515F8033CCE
:10B9C00015F8026C1B0103F0300343EA161303F56C
:10B9D000BC3393F8C060631CDBB2D65415F8023C4C
:10B9E00015F8017C9B0003F03C0343EA971303F531
:10B9F000BC33E61C93F8C070A31CDBB2F6B2D7547C
:10BA000015F8013C03F03F0303F5BC33043493F80D
:10BA1000C0309355E4B22B46C3E7F0BD2DE9F041A9
:10BA200094B0524B02930422514B5249054652485E
:10BA3000984752495048FEF707FC514BE02283F8E3
:10BA4000162383F8152393F816235209911E05290E
:10BA50000AD8042A08D04B4A9168002900F0818056
:10BA6000136843F480031360474B05A800213C2270
:10BA7000984701244FF0030805A9029A8DF8144055
:10BA800020208DF81640ADF81880FEF7D3FB14A9DE
:10BA9000029A01F8304D4020FEF7CCFB14A9002695
:10BAA00001F8246D2046029AFEF7C4FB14A94FF456
:10BAB000A07341F8183D029AA120FEF7BBFB14AF1A
:10BAC0009DF8443057F8482D14A966F3000301F897
:10BAD0000C3DA020FEF7AEFB3846FEF7A9FB9DF813
:10BAE00004302A4964F3030314A864F3071300F82D
:10BAF0004C3D4246FEF782FB3046FEF77DFB284672
:10BB0000FEF778FB224C03A8FEF76EFB0DF10D004B
:10BB10000621204AFFF742FF2368013310D11E4B54
:10BB20001B6801330CD1124B1C481A490822984754
:10BB300020461A490222FEF783FB6320184B9847E0
:10BB4000184A19481F211823FEF750FB174B1848B5
:10BB50001B78F03343810121FEF74AFB14B0BDE8A6
:10BB6000F0814FF480021A607EE700BF001E0020C3
:10BB700027800100B07F0100741D00204DA201004C
:10BB800000E100E02044002091800100961D00208B
:10BB9000F0830100991D0020F4830100401D002066
:10BBA000FB800100941D0020911D0020A01D00209D
:10BBB000801D00201FB56846FEF716FB02AA0DF196
:10BBC00001000621FFF7EAFE084B1A68029B9A4221
:10BBD00007D1074B03981B68181A18BF4FF0FF30A6
:10BBE00001E04FF0FF3005B05DF804FBF083010089
:10BBF000F483010070B5474B98470546002800F0D4
:10BC00008780454A138801339BB2502B138006D19D
:10BC10004FF0A0434FF40062C3F808250AE0B42BAC
:10BC200001BF4FF0A0434FF40061C3F80C1500238F
:10BC300008BF1380394A13884BB1013B9BB2138074
:10BC40002BB94FF0A0434FF48052C3F80825344B72
:10BC500003F17E0113F8012B12B1013A03F8012C14
:10BC60008B42F7D12F4A13780BB1013B13702E4A48
:10BC700013780BB1013B13702C4C236840F2DC525B
:10BC800001339342236015D9FFF794FF70B1284820
:10BC9000036801330ED127496FF001030B600122C5
:10BCA000FEF7CEFA6320244B984703E020706070C3
:10BCB000A070E070214B9847214B1C7844BB214970
:10BCC00022018B1844F243261888B04214D15A88B6
:10BCD000D2B11A4652F8086FB6B1D888013880B28E
:10BCE0004FF6FD7188420FD8D88068B99988D980FD
:10BCF00051682246B04707E044F64366B04201BFB0
:10BD00004320885442225A700134B4F5807FD6D142
:10BD1000284670BD35790100781D00207A1D00206D
:10BD20000A1E0020DA1D00203E1F0020DF1D00201B
:10BD3000F8830100401D0020FB8001009D79010077
:10BD4000901D00203F1F00203D4A3E4B3E498B4244
:10BD500004D252F8041F43F8041BF7E73B4B3C4A5C
:10BD600093424FF0000402D243F8044BF7E7394BFB
:10BD7000394A1C60394B3A4D1A603A4ADA653A4AF8
:10BD80001A613A483A491F22A8472146394B3A4896
:10BD90000B22984739493A481022A847394B204688
:10BDA0001C7003F8014C83F8C84083F8C94083F83D
:10BDB000CA4083F8CB40FFF731FEFFF795F840F219
:10BDC0004710314B9847FEF7FDFBFEF7D5FB4FF6CA
:10BDD000FF102E4B98474FF0A0434FF48052C3F80A
:10BDE00008252B482B4B98472B4B9847044618B9EE
:10BDF0002A4B9847044628B1294B984740B9A36875
:10BE0000984705E0274B1B68DB0701D5FFF736FD98
:10BE100044F6CC40244B9847FEF7E0FFFFF7B4F917
:10BE2000FEF78EFF214B1B7813B9FEF7F5FA01E000
:10BE3000FFF74AF9FFF7DEFEFEF700FAECE700BF76
:10BE400016BF0100001E0020081E0020081E002052
:10BE50003444002010E000E095A201000C1D0020F9
:10BE60002780010055A2010019A30100911D0020A7
:10BE7000817F010091800100A11D0020A07F0100B1
:10BE8000801D0020171D002001790100257C010084
:10BE900018BF0100C57A0100318101001381010042
:10BEA000F5810100F883010085790100901D0020D3
:10BEB000203052E220C062E23002A0413103A051A2
:10BEC000110C80413112A0E11EFF2FE1203052E21F
:10BED00020C062E21112A0411013A051301C814118
:10BEE0001002A0E11EFF2FE10000FF0000A5FF00EF
:10BEF00000FFFF0000FF0000FFFF0F00FF00000039
:10BF0000800080009314FF0000000301030502037A
:10BF100003030204030403064200002D5A87B40001
:10BF20000000FFFFFFFFFFFFFFFFFFFFFFFFFFFF1F
:040000031000A00049
:00000001FF
